{
  "contractName": "FABDistribution",
  "abi": [
    {
      "constant": true,
      "inputs": [
        {
          "name": "",
          "type": "address"
        }
      ],
      "name": "airdropAdmins",
      "outputs": [
        {
          "name": "",
          "type": "bool"
        }
      ],
      "payable": false,
      "stateMutability": "view",
      "type": "function"
    },
    {
      "constant": true,
      "inputs": [],
      "name": "AVAILABLE_AIRDROP_SUPPLY",
      "outputs": [
        {
          "name": "",
          "type": "uint256"
        }
      ],
      "payable": false,
      "stateMutability": "view",
      "type": "function"
    },
    {
      "constant": true,
      "inputs": [],
      "name": "startTime",
      "outputs": [
        {
          "name": "",
          "type": "uint256"
        }
      ],
      "payable": false,
      "stateMutability": "view",
      "type": "function"
    },
    {
      "constant": true,
      "inputs": [
        {
          "name": "",
          "type": "address"
        }
      ],
      "name": "airdrops",
      "outputs": [
        {
          "name": "",
          "type": "bool"
        }
      ],
      "payable": false,
      "stateMutability": "view",
      "type": "function"
    },
    {
      "constant": true,
      "inputs": [],
      "name": "owner",
      "outputs": [
        {
          "name": "",
          "type": "address"
        }
      ],
      "payable": false,
      "stateMutability": "view",
      "type": "function"
    },
    {
      "constant": true,
      "inputs": [],
      "name": "grandTotalClaimed",
      "outputs": [
        {
          "name": "",
          "type": "uint256"
        }
      ],
      "payable": false,
      "stateMutability": "view",
      "type": "function"
    },
    {
      "constant": false,
      "inputs": [
        {
          "name": "newOwner",
          "type": "address"
        }
      ],
      "name": "transferOwnership",
      "outputs": [],
      "payable": false,
      "stateMutability": "nonpayable",
      "type": "function"
    },
    {
      "inputs": [
        {
          "name": "token",
          "type": "address"
        },
        {
          "name": "_startTime",
          "type": "uint256"
        }
      ],
      "payable": false,
      "stateMutability": "nonpayable",
      "type": "constructor"
    },
    {
      "anonymous": false,
      "inputs": [
        {
          "indexed": true,
          "name": "previousOwner",
          "type": "address"
        },
        {
          "indexed": true,
          "name": "newOwner",
          "type": "address"
        }
      ],
      "name": "OwnershipTransferred",
      "type": "event"
    },
    {
      "constant": true,
      "inputs": [],
      "name": "token",
      "outputs": [
        {
          "name": "",
          "type": "address"
        }
      ],
      "payable": false,
      "stateMutability": "view",
      "type": "function"
    },
    {
      "constant": false,
      "inputs": [
        {
          "name": "_admin",
          "type": "address"
        },
        {
          "name": "_isAdmin",
          "type": "bool"
        }
      ],
      "name": "setAirdropAdmin",
      "outputs": [],
      "payable": false,
      "stateMutability": "nonpayable",
      "type": "function"
    },
    {
      "constant": false,
      "inputs": [
        {
          "name": "_recipient",
          "type": "address[]"
        },
        {
          "name": "_amount",
          "type": "uint256[]"
        }
      ],
      "name": "airdropTokens",
      "outputs": [],
      "payable": false,
      "stateMutability": "nonpayable",
      "type": "function"
    },
    {
      "constant": false,
      "inputs": [
        {
          "name": "_recipient",
          "type": "address"
        },
        {
          "name": "amount",
          "type": "uint256"
        }
      ],
      "name": "transferTokens",
      "outputs": [],
      "payable": false,
      "stateMutability": "nonpayable",
      "type": "function"
    },
    {
      "constant": true,
      "inputs": [],
      "name": "grandTotalAllocated",
      "outputs": [
        {
          "name": "",
          "type": "uint256"
        }
      ],
      "payable": false,
      "stateMutability": "view",
      "type": "function"
    }
  ],
  "bytecode": "0x60806040526012600a0a6298968002600255600060035534801561002257600080fd5b50604051604080610da08339810180604052810190808051906020019092919080519060200190929190505050336000806101000a81548173ffffffffffffffffffffffffffffffffffffffff021916908373ffffffffffffffffffffffffffffffffffffffff16021790555081600160006101000a81548173ffffffffffffffffffffffffffffffffffffffff021916908373ffffffffffffffffffffffffffffffffffffffff160217905550806004819055505050610cb8806100e86000396000f3006080604052600436106100ba576000357c0100000000000000000000000000000000000000000000000000000000900463ffffffff16806310e82384146100bf578063162cbefe1461011a5780632b41a90114610145578063706f69371461017057806378e979251461021957806379aa024e146102445780638c86f0a7146102935780638da5cb5b146102ee5780639377530f14610345578063bec3fa1714610370578063f2fde38b146103bd578063fc0c546a14610400575b600080fd5b3480156100cb57600080fd5b50610100600480360381019080803573ffffffffffffffffffffffffffffffffffffffff169060200190929190505050610457565b604051808215151515815260200191505060405180910390f35b34801561012657600080fd5b5061012f610477565b6040518082815260200191505060405180910390f35b34801561015157600080fd5b5061015a61047d565b6040518082815260200191505060405180910390f35b34801561017c57600080fd5b506102176004803603810190808035906020019082018035906020019080806020026020016040519081016040528093929190818152602001838360200280828437820191505050505050919291929080359060200190820180359060200190808060200260200160405190810160405280939291908181526020018383602002808284378201915050505050509192919290505050610496565b005b34801561022557600080fd5b5061022e6107ea565b6040518082815260200191505060405180910390f35b34801561025057600080fd5b50610291600480360381019080803573ffffffffffffffffffffffffffffffffffffffff1690602001909291908035151590602001909291905050506107f0565b005b34801561029f57600080fd5b506102d4600480360381019080803573ffffffffffffffffffffffffffffffffffffffff1690602001909291905050506108a6565b604051808215151515815260200191505060405180910390f35b3480156102fa57600080fd5b506103036108c6565b604051808273ffffffffffffffffffffffffffffffffffffffff1673ffffffffffffffffffffffffffffffffffffffff16815260200191505060405180910390f35b34801561035157600080fd5b5061035a6108eb565b6040518082815260200191505060405180910390f35b34801561037c57600080fd5b506103bb600480360381019080803573ffffffffffffffffffffffffffffffffffffffff169060200190929190803590602001909291905050506108f1565b005b3480156103c957600080fd5b506103fe600480360381019080803573ffffffffffffffffffffffffffffffffffffffff169060200190929190505050610ad6565b005b34801561040c57600080fd5b50610415610c2b565b604051808273ffffffffffffffffffffffffffffffffffffffff1673ffffffffffffffffffffffffffffffffffffffff16815260200191505060405180910390f35b60056020528060005260406000206000915054906101000a900460ff1681565b60025481565b60006012600a0a60035481151561049057fe5b04905090565b6000806000809054906101000a900473ffffffffffffffffffffffffffffffffffffffff1673ffffffffffffffffffffffffffffffffffffffff163373ffffffffffffffffffffffffffffffffffffffff16148061053d5750600560003373ffffffffffffffffffffffffffffffffffffffff1673ffffffffffffffffffffffffffffffffffffffff16815260200190815260200160002060009054906101000a900460ff165b151561054857600080fd5b600090505b83518110156107ae5760066000858381518110151561056857fe5b9060200190602002015173ffffffffffffffffffffffffffffffffffffffff1673ffffffffffffffffffffffffffffffffffffffff16815260200190815260200160002060009054906101000a900460ff1615156107a15760016006600086848151811015156105d457fe5b9060200190602002015173ffffffffffffffffffffffffffffffffffffffff1673ffffffffffffffffffffffffffffffffffffffff16815260200190815260200160002060006101000a81548160ff021916908315150217905550600160009054906101000a900473ffffffffffffffffffffffffffffffffffffffff1673ffffffffffffffffffffffffffffffffffffffff1663a9059cbb858381518110151561067b57fe5b906020019060200201516012600a0a868581518110151561069857fe5b90602001906020020151026040518363ffffffff167c0100000000000000000000000000000000000000000000000000000000028152600401808373ffffffffffffffffffffffffffffffffffffffff1673ffffffffffffffffffffffffffffffffffffffff16815260200182815260200192505050602060405180830381600087803b15801561072857600080fd5b505af115801561073c573d6000803e3d6000fd5b505050506040513d602081101561075257600080fd5b8101908080519060200190929190505050151561076e57600080fd5b61079e6012600a0a848381518110151561078457fe5b906020019060200201510283610c5590919063ffffffff16565b91505b808060010191505061054d565b6107c382600254610c7390919063ffffffff16565b6002819055506107de82600354610c5590919063ffffffff16565b60038190555050505050565b60045481565b6000809054906101000a900473ffffffffffffffffffffffffffffffffffffffff1673ffffffffffffffffffffffffffffffffffffffff163373ffffffffffffffffffffffffffffffffffffffff1614151561084b57600080fd5b80600560008473ffffffffffffffffffffffffffffffffffffffff1673ffffffffffffffffffffffffffffffffffffffff16815260200190815260200160002060006101000a81548160ff0219169083151502179055505050565b60066020528060005260406000206000915054906101000a900460ff1681565b6000809054906101000a900473ffffffffffffffffffffffffffffffffffffffff1681565b60035481565b60008060009054906101000a900473ffffffffffffffffffffffffffffffffffffffff1673ffffffffffffffffffffffffffffffffffffffff163373ffffffffffffffffffffffffffffffffffffffff1614806109975750600560003373ffffffffffffffffffffffffffffffffffffffff1673ffffffffffffffffffffffffffffffffffffffff16815260200190815260200160002060009054906101000a900460ff165b15156109a257600080fd5b6012600a0a82029050600160009054906101000a900473ffffffffffffffffffffffffffffffffffffffff1673ffffffffffffffffffffffffffffffffffffffff1663a9059cbb84836040518363ffffffff167c0100000000000000000000000000000000000000000000000000000000028152600401808373ffffffffffffffffffffffffffffffffffffffff1673ffffffffffffffffffffffffffffffffffffffff16815260200182815260200192505050602060405180830381600087803b158015610a7057600080fd5b505af1158015610a84573d6000803e3d6000fd5b505050506040513d6020811015610a9a57600080fd5b81019080805190602001909291905050501515610ab657600080fd5b610acb81600354610c5590919063ffffffff16565b600381905550505050565b6000809054906101000a900473ffffffffffffffffffffffffffffffffffffffff1673ffffffffffffffffffffffffffffffffffffffff163373ffffffffffffffffffffffffffffffffffffffff16141515610b3157600080fd5b600073ffffffffffffffffffffffffffffffffffffffff168173ffffffffffffffffffffffffffffffffffffffff1614151515610b6d57600080fd5b8073ffffffffffffffffffffffffffffffffffffffff166000809054906101000a900473ffffffffffffffffffffffffffffffffffffffff1673ffffffffffffffffffffffffffffffffffffffff167f8be0079c531659141344cd1fd0a4f28419497f9722a3daafe3b4186f6b6457e060405160405180910390a3806000806101000a81548173ffffffffffffffffffffffffffffffffffffffff021916908373ffffffffffffffffffffffffffffffffffffffff16021790555050565b6000600160009054906101000a900473ffffffffffffffffffffffffffffffffffffffff16905090565b6000808284019050838110151515610c6957fe5b8091505092915050565b6000828211151515610c8157fe5b8183039050929150505600a165627a7a723058205b78346c185ba8a09e8eb624cf014c4f4d4b765445d9a83b29fa4deebce23c1f0029",
  "source": "pragma solidity ^0.4.24;\n\nimport './interfaces/IERC20.sol';\nimport './SafeMath.sol';\nimport './Ownable.sol';\n/**\n * @title FAB token initial distribution\n *\n * @dev Distribute purchasers, airdrop, reserve, and founder tokens\n */\ncontract FABDistribution is Ownable {\n  using SafeMath for uint256;\n  //using SafeERC20 for IERC20;\n  // IERC20 private FAB;\n  IERC20 private FAB;\n  uint256 private constant decimalFactor = 10**uint256(18);\n  uint256 public AVAILABLE_AIRDROP_SUPPLY  =   10000000 * decimalFactor; // 100% Released at TD\n  uint256 public grandTotalClaimed = 0;\n  uint256 public startTime;\n  // List of admins\n  mapping (address => bool) public airdropAdmins;\n  // Keeps track of whether or not an airdrop has been made to a particular address\n  mapping (address => bool) public airdrops;\n\n  modifier onlyOwnerOrAdmin() {\n    require(msg.sender == owner || airdropAdmins[msg.sender]);\n    _;\n  }\n\n  function FABDistribution(IERC20 token, uint256 _startTime) public {\n    FAB = token;\n    startTime = _startTime;\n  }\n\n  function token() public view returns (IERC20) {\n    return FAB;\n  }\n\n  function setAirdropAdmin(address _admin, bool _isAdmin) public onlyOwner {\n    airdropAdmins[_admin] = _isAdmin;\n  }\n\n  function airdropTokens(address[] _recipient, uint256[] _amount) public onlyOwnerOrAdmin {\n    // require(now >= startTime);\n    uint airdropped;\n    for(uint256 i = 0; i< _recipient.length; i++)\n    {\n        if (!airdrops[_recipient[i]]) {\n          airdrops[_recipient[i]] = true;\n          require(FAB.transfer(_recipient[i], _amount[i] * decimalFactor));\n          airdropped = airdropped.add(_amount[i] * decimalFactor);\n        }\n    }\n    AVAILABLE_AIRDROP_SUPPLY = AVAILABLE_AIRDROP_SUPPLY.sub(airdropped);\n    grandTotalClaimed = grandTotalClaimed.add(airdropped);\n  }\n\n  function transferTokens (address _recipient, uint256 amount) public onlyOwnerOrAdmin {\n    uint256 tokensToTransfer = amount * decimalFactor;\n    require(FAB.transfer(_recipient, tokensToTransfer ));\n    grandTotalClaimed = grandTotalClaimed.add( tokensToTransfer );\n  }\n\n  // Returns the amount of FAB allocated\n  function grandTotalAllocated() public view returns (uint256) {\n    return grandTotalClaimed / decimalFactor;\n  }\n\n}\n",
  "sourcePath": "/usr/src/app/contracts/FABDistribution.sol",
  "compiler": {
    "name": "solc",
    "version": "0.4.24+commit.e67f0147.Emscripten.clang"
  },
  "schemaVersion": "3.0.9",
  "updatedAt": "2020-02-15T07:17:49.766Z",
  "devdoc": {
    "methods": {
      "transferOwnership(address)": {
        "details": "Allows the current owner to transfer control of the contract to a newOwner.",
        "params": {
          "newOwner": "The address to transfer ownership to."
        }
      }
    },
    "title": "FAB token initial distribution"
  },
  "userdoc": {
    "methods": {}
  }
}